:1000000061C0000087C0000085C0000083C0000000
:1000100081C000007FC000007DC000007BC00000E8
:1000200079C0000077C0000075C0000073C00000F8
:1000300071C000006FC000006DC000006BC0000008
:100040000C94290F67C000000C9446170C9472178B
:1000500061C000005FC000005DC000005BC0000028
:1000600059C0000057C00000000000002400270015
:100070002A0000000000250028002B0000000000DE
:1000800023002600290004040404040404040202DA
:100090000202020203030303030301020408102007
:1000A0004080010204081020010204081020000012
:1000B0000008000201000003040700000000000027
:1000C0000000D91711241FBECFEFD8E0DEBFCDBF8F
:1000D00011E0A0E0B1E0E8E0F1E302C005900D928C
:1000E000A03BB107D9F724E0A0EBB1E001C01D921D
:1000F000A732B207E1F710E0C2E6D0E004C02197D2
:10010000FE010E945918C136D107C9F70E94490D56
:100110000C94821875CFCF93DF9300D000D0CDB769
:10012000DEB769837A838B839C8389819A81AB81D3
:10013000BC810E97A105B10530F48981825F60E032
:100140000E94D81004C0898160E00E94D810898183
:100150009A8101969C0189819A81AB81BC81A90118
:10016000BC01CD01B8D089819A8101960F900F9082
:100170000F900F90DF91CF910895CF93DF93CDB77C
:10018000DEB729970FB6F894DEBF0FBECDBF9D83B3
:100190008C837F836E8359874887CE010496FC0148
:1001A0008081882399F0CE010496FC0180818150E2
:1001B000898389810E9488109B838A832A813B815D
:1001C0008E819F81FC013183208305C08E819F81B8
:1001D000FC0111821082000029960FB6F894DEBF50
:1001E0000FBECDBFDF91CF910895CF93DF9300D0A5
:1001F0001F92CDB7DEB79B838A83CE010296FC01A6
:100200008081882389F01982CE010296FC018081C9
:10021000815089838981882F90E0A0E0B0E040E0A0
:1002200050E0BC01CD0157D000000F900F900F900F
:10023000DF91CF910895CF93DF93CDB7DEB72997A4
:100240000FB6F894DEBF0FBECDBF6E837F83888765
:1002500099871C821B821A8219821D828E819F813E
:10026000A885B985689412F8B695A795979587954E
:100270001694D1F79C838B838E8187708D838B81BD
:100280009C8180559E4FFC0140818D81282F30E05C
:1002900081E090E002C0880F991F2A95E2F784233D
:1002A000882F90E09A83898389819A81892B31F004
:1002B0008E819F8101969A83898302C01A82198256
:1002C00089819A8129960FB6F894DEBF0FBECDBF03
:1002D000DF91CF910895CF93DF93CDB7DEB72A9703
:1002E0000FB6F894DEBF0FBECDBF6D837E838F83C4
:1002F00098875A8749871A8219821B821C828D81AE
:100300009E81AF81B885689412F8B695A7959795A8
:1003100087951694D1F79A8389838D8187708B8313
:100320008B81282F30E081E090E002C0880F991F78
:100330002A95E2F78C8389859A85892B99F48C819B
:1003400080958C8389819A8180559E4FFC01908194
:100350008C81292F282389819A8180559E4FFC0109
:1003600020830FC089819A8180559E4FFC01908126
:100370008C81292F282B89819A8180559E4FFC01E1
:10038000208300002A960FB6F894DEBF0FBECDBFC3
:10039000DF91CF910895CF93DF9300D0CDB7DEB733
:1003A00089836A838A81882329F460E089810E9495
:1003B000D8100CC08A81813029F461E089810E94C3
:1003C000D81004C062E089810E94D81000000F900C
:1003D0000F90DF91CF910895CF93DF9300D0CDB7E9
:1003E000DEB789836A838A81882329F061E0898165
:1003F0000E94021204C060E089810E940212000083
:100400000F900F90DF91CF910895CF93DF9300D09D
:10041000CDB7DEB78A838A810E948A12019711F4D0
:1004200081E001C080E0898389810F900F90DF9186
:10043000CF910895CF93DF93CDB7DEB789EB91E0ED
:10044000FC0123852F5FFC01238789EB91E0FC01F0
:100450008385823320F089EB91E0FC011386000054
:10046000DF91CF910895EF92FF920F931F93CF9357
:10047000DF93CDB7DEB728970FB6F894DEBF0FBE77
:10048000CDBF8091140490911504A0911604B091F1
:100490001704209108043091090440910A045091F6
:1004A0000B04BC01CD010E94A70DDC01CB017C0136
:1004B0008D018091140490911504A0911604B091BF
:1004C00017049C01AD01C801B7010E94C60EDC01F2
:1004D000CB018B839C83AD83BE8320E030E0A901F8
:1004E0006B817C818D819E810E94C20E8823ECF1FC
:1004F0008091200490912104A0912204B0912304C2
:1005000020E030E040E85FE3BC01CD010E940C0E2A
:1005100088235CF54FEF50E066E571E08EEE92E0E7
:100520000E9473181092ED038DE691E098878F83F7
:100530001A82198213C089819A812F813885820F8E
:10054000931FFC01208189819A8182519D4FFC017A
:10055000208389819A8101969A83898389819A81EE
:1005600009974CF31092F70249C020E030E0A9014E
:100570006B817C818D819E810E940C0E88230CF002
:100580003DC08091200490912104A0912204B0915B
:10059000230420E030E040E85FE3BC01CD010E948D
:1005A0000C0E88230CF02AC04FEF50E066E571E096
:1005B0008EEE92E00E9473181092ED0386E791E0B0
:1005C00098878F831A82198213C089819A812F811B
:1005D0003885820F931FFC01208189819A81825185
:1005E0009D4FFC01208389819A8101969A8389839A
:1005F00089819A8109974CF31092F702000028969E
:100600000FB6F894DEBF0FBECDBFDF91CF911F9123
:100610000F91FF90EF900895CF93DF93CDB7DEB7A2
:100620008091FA03882399F480910C0490910D0431
:10063000A0910E04B0910F048093E2029093E30224
:10064000A093E402B093E50281E08093FA038091E5
:10065000F903882399F48091040490910504A091F2
:100660000604B09107048093DE029093DF02A0930A
:10067000E002B093E10281E08093F9038091F703F7
:10068000882399F48091180490911904A0911A0478
:10069000B0911B048093D6029093D702A093D80206
:1006A000B093D90281E08093F7038091F803882307
:1006B00099F48091100490911104A0911204B091CA
:1006C00013048093DA029093DB02A093DC02B093D0
:1006D000DD0281E08093F8038091FB03882399F485
:1006E00080911C0490911D04A0911E04B0911F04E0
:1006F0008093E6029093E702A093E802B093E902A8
:1007000081E08093FB0380911C0490911D04A091D3
:100710001E04B0911F042091E6023091E70240913F
:10072000E8025091E902BC01CD010E94A70DDC0155
:10073000CB012DEC3CEC4CE45EE3BC01CD010E940E
:10074000C20E88230CF417C18091DA029091DB026B
:10075000A091DC02B091DD022091100430911104CF
:100760004091120450911304BC01CD010E94A70DC9
:10077000DC01CB01BF772091D2023091D3024091AE
:10078000D4025091D502BC01CD010E940C0E181666
:100790006CF080E090E0A0E8BFE38093EA029093E1
:1007A000EB02A093EC02B093ED0295C08091DE02C3
:1007B0009091DF02A091E002B091E1022091040447
:1007C000309105044091060450910704BC01CD010D
:1007D0000E94A70DDC01CB01BF772091D20230919E
:1007E000D3024091D4025091D502BC01CD010E94A8
:1007F0000C0E18166CF080E090E0A0E8BFE3809348
:10080000EA029093EB02A093EC02B093ED0263C076
:100810008091D6029091D702A091D802B091D902CE
:10082000209118043091190440911A0450911B042E
:10083000BC01CD010E94A70DDC01CB01BF77209147
:10084000D2023091D3024091D4025091D502BC0122
:10085000CD010E940C0E18166CF080E090E0A0E82C
:10086000BFE38093EA029093EB02A093EC02B09373
:10087000ED0231C08091E2029091E302A091E40286
:10088000B091E50220910C0430910D0440910E04CA
:1008900050910F04BC01CD010E94A70DDC01CB01DA
:1008A000BF772091D2023091D3024091D40250916F
:1008B000D502BC01CD010E940C0E181664F080E038
:1008C00090E0A0E8BFE38093EA029093EB02A0934C
:1008D000EC02B093ED0280911C0490911D04A09154
:1008E0001E04B0911F048093E6029093E702A09348
:1008F000E802B093E9028091100490911104A09154
:100900001204B09113048093DA029093DB02A09357
:10091000DC02B093DD028091040490910504A09163
:100920000604B09107048093DE029093DF02A09347
:10093000E002B093E1028091180490911904A09113
:100940001A04B0911B048093D6029093D702A0930F
:10095000D802B093D90280910C0490910D04A0911B
:100960000E04B0910F048093E2029093E302A093EF
:10097000E402B093E5028091EA029091EB02A0912B
:10098000EC02B091ED02BC01CD01DF91CF91089551
:10099000CF92DF92EF92FF920F931F93CF93DF934B
:1009A000CDB7DEB761970FB6F894DEBF0FBECDBFEF
:1009B0008091A2029091A302A091A402B091A502FD
:1009C000209108013091090140910A0150910B01D9
:1009D000BC01CD010E940C0E882381F0809108019A
:1009E00090910901A0910A01B0910B018093A2029C
:1009F0009093A302A093A402B093A5028AE992E087
:100A00009A8389836FE070E080E090E014DC9C01C1
:100A100089819A81FC01378326838091A00290917D
:100A2000A1029E01205F3F4F43E050E0B901A5DBEA
:100A3000C0901C01D0901D01E0901E01F0901F019C
:100A400088899989CC01A0E0B0E0BC01CD010E9469
:100A5000100EDC01CB019C01AD01C701B6010E9463
:100A6000C60EDC01CB017C018D01809120019091AB
:100A70002101A0912201B09123019C01AD01C80187
:100A8000B7010E94C60EDC01CB017C018D01809173
:100A9000240190912501A0912601B09127019C018C
:100AA000AD01C801B7010E94A80DDC01CB01809304
:100AB000040490930504A0930604B0930704809166
:100AC000040490910504A0910604B09107042091BC
:100AD00028013091290140912A0150912B01BC013C
:100AE000CD010E94C60EDC01CB018B839C83AD83BC
:100AF000BE838091CA029091CB02A091CC02B091AA
:100B0000CD029C01AD016B817C818D819E810E9413
:100B1000A70DDC01CB018093080490930904A093F6
:100B20000A04B0930B048091960290919702A091D1
:100B30009802B091990220910C0130910D014091E1
:100B40000E0150910F01BC01CD010E940C0E8823B3
:100B500081F080910C0190910D01A0910E01B09156
:100B60000F018093960290939702A0939802B093FE
:100B700099028EE892E09A8389836EE070E080E0CB
:100B800090E059DB9C0189819A81FC01378326839F
:100B900080919402909195029E01205F3F4F43E027
:100BA00050E0B901EADAC0902C01D0902D01E0901C
:100BB0002E01F0902F0188899989CC01A0E0B0E046
:100BC000BC01CD010E94100EDC01CB019C01AD01E6
:100BD000C701B6010E94C60EDC01CB017C018D016C
:100BE0008091300190913101A0913201B091330197
:100BF0009C01AD01C801B7010E94C60EDC01CB010A
:100C00007C018D018091340190913501A0913601D4
:100C1000B09137019C01AD01C801B70199D7DC0142
:100C2000CB0180930C0490930D04A0930E04B09319
:100C30000F0480918A0290918B02A0918C02B09156
:100C40008D022091100130911101409112015091BB
:100C50001301BC01CD01E0D7882381F08091100100
:100C600090911101A0911201B091130180938A0219
:100C700090938B02A0938C02B0938D0282E892E055
:100C80009A83898361E170E080E090E0D4DA9C018E
:100C900089819A81FC013783268380918802909113
:100CA00089029E01205F3F4F43E050E0B90165DAC1
:100CB000C0903801D0903901E0903A01F0903B01AA
:100CC00088899989CC01A0E0B0E0BC01CD01A8D70A
:100CD000DC01CB019C01AD01C701B6010E94C60E2B
:100CE000DC01CB017C018D0180913C0190913D01A3
:100CF000A0913E01B0913F019C01AD01C801B70137
:100D00000E94C60EDC01CB017C018D018091400167
:100D100090914101A0914201B09143019C01AD012C
:100D2000C801B70115D7DC01CB0180931004909363
:100D30001104A0931204B0931304809110049091B5
:100D40001104A0911204B091130420914401309138
:100D500045014091460150914701BC01CD010E94DF
:100D6000C60EDC01CB018F839887A987BA87809153
:100D7000CE029091CF02A091D002B091D1029C01FD
:100D8000AD016F81788589859A85E1D6DC01CB013B
:100D90008093140490931504A0931604B093170441
:100DA00080917E0290917F02A0918002B091810299
:100DB00020911401309115014091160150911701B5
:100DC000BC01CD0129D7882381F080911401909135
:100DD0001501A0911601B091170180937E029093A6
:100DE0007F02A0938002B093810286E792E09A830B
:100DF000898360E170E080E090E01DDA9C018981E8
:100E00009A81FC013783268380917C0290917D0238
:100E10009E01205F3F4F43E050E0B901AED9C09042
:100E20004801D0904901E0904A01F0904B01888937
:100E30009989CC01A0E0B0E0BC01CD01F1D6DC0184
:100E4000CB019C01AD01C701B601A0D7DC01CB01EC
:100E50007C018D0180914C0190914D01A0914E013A
:100E6000B0914F019C01AD01C801B7018FD7DC01E2
:100E7000CB017C018D018091500190915101A09195
:100E80005201B09153019C01AD01C801B70160D678
:100E9000DC01CB018093180490931904A0931A04E9
:100EA000B0931B0489EB91E0FC0182819381A481C2
:100EB000B581BC01CD01B4D66B017C0189EB91E019
:100EC000FC0186819781A085B185BC01CD01A8D6A2
:100ED000DC01CB0120E030E040E85FE4BC01CD0163
:100EE00055D7DC01CB019C01AD01C701B60130D65D
:100EF000DC01CB012AE037ED43E25CE3BC01CD012C
:100F000045D7DC01CB0180931C0490931D04A09372
:100F10001E04B0931F048091AE029091AF02A09185
:100F2000B002B091B10220911801309119014091A5
:100F30001A0150911B01BC01CD016ED6882381F0AE
:100F40008091180190911901A0911A01B0911B0193
:100F50008093AE029093AF02A093B002B093B1021F
:100F600084E053DA8B878091EF038823A1F481E03A
:100F70008093EF0381E08093F00381E08093F1039D
:100F80001092200410922104109222041092230443
:100F900010922404F7C08091F003813009F0EFC073
:100FA0008091F103882F90E08130910519F002972C
:100FB00019F1E2C010922004109221041092220430
:100FC000109223048B85882309F4DBC082E0809390
:100FD000F10381E08093F30381E08093F20381E0E9
:100FE0008093F40381E08093240481E08093F603EE
:100FF00081E08093F503C5C08B858823C1F41092EE
:10100000F5031092F6031092F4031092F20310927B
:10101000F30381E08093F1031092200410922104E5
:10102000109222041092230410922404ABC01BDA05
:101030008091F303882309F479C08091F203813011
:1010400009F074C0E9DADC01CB018C879D87AE879B
:10105000BF8720E030E0A9016C857D858E859F8566
:10106000DBD58823C9F18091F603882351F1809163
:10107000F503882F90E08130910519F0029789F0EF
:101080001DC082E08093F50380E090E0A0E8BFE31C
:101090008093200490932104A0932204B09323040E
:1010A00011C080E090E0A0E8BFE38093200490931B
:1010B0002104A0932204B093230404C01092F503EA
:1010C00001C0000081E08093F20381E08093F4038B
:1010D00081E0809324042FC08091F403882F90E056
:1010E0008130910519F0029779F01DC067E571E034
:1010F0008EEE92E00E946A18892BD1F482E08093F0
:10110000F4031092240414C061E671E08EEE92E0C4
:101110000E946A18892B71F481E08093F40381E0C6
:101120008093240407C01092F40305C0000003C09C
:10113000000001C000008091F6038823C9F080916F
:10114000F503882F90E081309105A1F0029769F4B2
:1011500080E090E0A0E8BFE3809320049093210416
:10116000A0932204B093230406C01092F50303C099
:10117000000008C0000006C01092F10303C0000088
:1011800001C000008091200490912104A0912204CC
:10119000B091230411E020E030E0A901BC01CD01B1
:1011A0003BD5882309F410E0812F682F87E014D9FC
:1011B0009091240481E0992309F480E0682F8AE06B
:1011C0000BD989EB91E0FC018385882369F4909128
:1011D000EE0381E0992309F080E08093EE03809193
:1011E000EE03682F8DE0F8D88B819C81AD81BE81A4
:1011F0008093CA029093CB02A093CC02B093CD020D
:101200008F819885A985BA858093CE029093CF026D
:10121000A093D002B093D10229EB31E0F901828191
:101220009381A481B5810196A11DB11DF90182832D
:101230009383A483B58389EB91E0FC018281938140
:10124000A481B581892B8A2B8B2B79F429EB31E092
:10125000F90186819781A085B1850196A11DB11DF7
:10126000F90186839783A087B187E4D8000061964F
:101270000FB6F894DEBF0FBECDBFDF91CF911F91A7
:101280000F91FF90EF90DF90CF900895CF93DF9371
:1012900000D0CDB7DEB789EB91E04CE050E060E0E4
:1012A00070E00E94631841E250E060E070E084E08A
:1012B00094E00E9463184EE851E060E070E086E739
:1012C00092E00E94631881E080939A0210929B0240
:1012D00010929C0210929D0210929E0280E090E07B
:1012E000A0E8BFEB8093A2029093A302A093A40274
:1012F000B093A50210929A0281E08093030480913A
:10130000080190910901A0910A01B0910B0180930D
:10131000A2029093A302A093A402B093A5028AE92B
:1013200092E09A83898310929F0281E090E0A0E08E
:10133000B0E080939B0290939C02A0939D02B09397
:101340009E026FE070E080E090E00E948B009C01C4
:1013500089819A81FC013783268381E080939F02F3
:1013600081E080938E0210928F0210929002109270
:1013700091021092920280E090E0A0E8BFEB80938F
:10138000960290939702A0939802B09399021092BC
:101390008E0281E08093020480910C0190910D01F6
:1013A000A0910E01B0910F01809396029093970245
:1013B000A0939802B09399028EE892E09A83898371
:1013C0001092930281E090E0A0E0B0E080938F0261
:1013D00090939002A0939102B09392026EE070E01D
:1013E00080E090E00E948B009C0189819A81FC0141
:1013F0003783268381E08093930281E08093820289
:10140000109283021092840210928502109286023A
:1014100080E090E0A0E8BFEB80938A0290938B027B
:10142000A0938C02B0938D021092820281E080938F
:1014300001048091100190911101A0911201B091CD
:10144000130180938A0290938B02A0938C02B09335
:101450008D0282E892E09A8389831092870281E06C
:1014600090E0A0E0B0E08093830290938402A09388
:101470008502B093860261E170E080E090E00E9416
:101480008B009C0189819A81FC013783268381E04E
:101490008093870281E08093760210927702109207
:1014A00078021092790210927A0280E090E0A0E82F
:1014B000BFEB80937E0290937F02A0938002B09353
:1014C00081021092760281E08093000480911401E1
:1014D00090911501A0911601B091170180937E02A1
:1014E00090937F02A0938002B093810286E792E0FE
:1014F0009A83898310927B0281E090E0A0E0B0E0C3
:101500008093770290937802A0937902B0937A0245
:1015100060E170E080E090E00E948B009C01898196
:101520009A81FC013783268381E080937B021092AD
:10153000A60281E08093FF03809118019091190128
:10154000A0911A01B0911B018093AE029093AF025B
:10155000A093B002B093B10281E090E0A0E0B0E0CF
:101560008093A7029093A802A093A902B093AA0225
:1015700060E084E00E94CB0181E08093AB02109296
:10158000C20281E08093FE0381E090E0A0E0B0E041
:101590008093C3029093C402A093C502B093C60285
:1015A00061E087E00E94CB0181E08093C702109246
:1015B000BA0281E08093FD0381E090E0A0E0B0E01A
:1015C0008093BB029093BC02A093BD02B093BE0275
:1015D00061E08AE00E94CB0181E08093BF0210921B
:1015E000B20281E08093FC0381E090E0A0E0B0E0F3
:1015F0008093B3029093B402A093B502B093B60265
:1016000061E08DE00E94CB0181E08093B702809180
:10161000000190910101A0910201B091030180931A
:10162000CA029093CB02A093CC02B093CD028091DA
:10163000040190910501A0910601B09107018093EA
:10164000CE029093CF02A093D002B093D1028091AA
:1016500054018093EE031092F7031092F803109256
:10166000F9031092FA031092FB031092F103109207
:10167000F3031092F2031092F4031092F603109207
:10168000F5031092EF031092F0034FEF50E066E580
:1016900071E08EEE92E00E9473181092ED031092AA
:1016A000200410922104109222041092230410921C
:1016B000240487E79CECABE2B2E38093D2029093E0
:1016C000D302A093D402B093D5021092EA021092F2
:1016D000EB021092EC021092ED0200000F900F90BE
:1016E000DF91CF910895CF93DF9300D0CDB7DEB7D0
:1016F0008AE992E09A83898380919A02882329F566
:1017000081E080939A0280919B0290919C02A0912B
:101710009D02B0919E020197A105B105B1F480919F
:101720009F02882391F06FE070E080E090E00E94DB
:101730001B019C0189819A81FC013783268380915A
:10174000A0029091A1020E94F5008EE892E09A8397
:10175000898380918E02882329F581E080938E020F
:1017600080918F0290919002A0919102B09192028B
:101770000197A105B105B1F480919302882391F0FE
:101780006EE070E080E090E00E941B019C01898186
:101790009A81FC013783268380919402909195026F
:1017A0000E94F50082E892E09A8389838091820208
:1017B000882329F581E080938202809183029091B1
:1017C0008402A0918502B09186020197A105B1051E
:1017D000B1F480918702882391F061E170E080E0AC
:1017E00090E00E941B019C0189819A81FC01378352
:1017F000268380918802909189020E94F50086E7F5
:1018000092E09A83898380917602882329F581E08A
:10181000809376028091770290917802A09179026C
:10182000B0917A020197A105B105B1F480917B02D4
:10183000882391F060E170E080E090E00E941B015D
:101840009C0189819A81FC013783268380917C02E7
:1018500090917D020E94F5008091A602882319F4E0
:1018600081E08093A6028091C202882319F481E06E
:101870008093C2028091BA02882319F481E0809398
:10188000BA028091B202882319F481E08093B202F7
:1018900000000F900F90DF91CF910895CF93DF93C9
:1018A000CDB7DEB740E855E260E070E080E090E060
:1018B00026D00000DF91CF910895CF93DF9300D021
:1018C00000D000D0CDB7DEB79A8389834B835C8389
:1018D0006D837E838B819C81AD81BE81E981FA819C
:1018E00026E0AC01BD01CF0104D7000026960FB65B
:1018F000F894DEBF0FBECDBFDF91CF910895CF9397
:10190000DF9300D000D000D0CDB7DEB79A838983B3
:101910004B835C836D837E838B819C81AD81BE8193
:10192000AC01BD0189ED91E0C8DF000026960FB63D
:10193000F894DEBF0FBECDBFDF91CF910895CF9356
:10194000DF93CDB7DEB70000DF91CF910895EF921E
:10195000FF920F931F93CF93DF9300D000D01F927D
:10196000CDB7DEB71982E6D2DC01CB018093C90185
:101970009093CA01A093CB01B093CC012091C901EF
:101980003091CA014091CB015091CC018091C501A9
:101990009091C601A091C701B091C80179018A0157
:1019A000E81AF90A0A0B1B0BD801C70180319742CC
:1019B000A105B10508F43CC08091C9019091CA010C
:1019C000A091CB01B091CC018093C5019093C60149
:1019D000A093C701B093C8013AD0ACD2DC01CB01CF
:1019E0008A839B83AC83BD838091C5019091C6019E
:1019F000A091C701B091C8012A813B814C815D81D2
:101A000079018A01E81AF90A0A0B1B0BD801C701F0
:101A100080319742A105B10538F081E090E09093C4
:101A2000CE018093CD0104C01092CE011092CD0161
:101A300081E0898389810F900F900F900F900F9014
:101A4000DF91CF911F910F91FF90EF900895CF9369
:101A5000DF93CDB7DEB78091CF0191E0980F9093DF
:101A6000CF01882361F081E090E09093CE018093D4
:101A7000CD018091CF0181508093CF0107C00E949A
:101A8000C8048091CF0181508093CF01DF91CF9125
:101A90000895CF93DF93CDB7DEB728970FB6F894AC
:101AA000DEBF0FBECDBF8AE097EDA3E2BCE3898322
:101AB0009A83AB83BC831D821E821F82188610927C
:101AC00026041092250495D2E9DE80916B01909155
:101AD0006C01FC0111821082D9DBF89430DF809117
:101AE0006B0190916C01FC018081918121E0892B37
:101AF00009F020E0822F80932504789417C080910C
:101B00006B0190916C01FC018081918121E0892B16
:101B100009F420E0822F809326049091260481E02E
:101B2000992309F080E08093250411DF809125043A
:101B3000882329F7D8DDF89480E090E028960FB646
:101B4000F894DEBF0FBECDBFDF91CF9108955058FE
:101B5000BB27AA270ED0DCC0CDD030F0D2D020F0E9
:101B600031F49F3F11F41EF4C2C00EF4E095E7FB80
:101B7000B8C0E92FDED080F3BA1762077307840775
:101B8000950718F071F49EF5F6C00EF4E0950B2E53
:101B9000BA2FA02D0B01B90190010C01CA01A001BF
:101BA0001124FF27591B99F0593F50F4503E68F11A
:101BB0001A16F040A22F232F342F4427585FF3CF5B
:101BC000469537952795A795F0405395C9F77EF42C
:101BD0001F16BA0B620B730B840BBAF09150A1F075
:101BE000FF0FBB1F661F771F881FC2F70EC0BA0FFB
:101BF000621F731F841F48F4879577956795B79583
:101C0000F7959E3F08F0B3CF9395880F08F099277A
:101C1000EE0F97958795089540D008F481E00895D8
:101C2000E89409C097FB3EF4909580957095619576
:101C30007F4F8F4F9F4F9923A9F0F92F96E9BB272C
:101C40009395F695879577956795B795F111F8CFA8
:101C5000FAF4BB0F11F460FF1BC06F5F7F4F8F4F13
:101C60009F4F16C0882311F096E911C0772321F009
:101C70009EE8872F762F05C0662371F096E8862FA1
:101C800070E060E02AF09A95660F771F881FDAF7F8
:101C9000880F9695879597F90895990F0008550F25
:101CA000AA0BE0E8FEEF16161706E807F907C0F0E2
:101CB00012161306E407F50798F0621B730B840BEA
:101CC000950B39F40A2661F0232B242B252B21F4C4
:101CD00008950A2609F4A140A6958FEF811D811D64
:101CE000089597F99F6780E870E060E008959FEF9E
:101CF00080EC089500240A941616170618060906A3
:101D0000089500240A941216130614060506089571
:101D1000092E0394000C11F4882352F0BB0F40F4F9
:101D2000BF2B11F460FF04C06F5F7F4F8F4F9F4F39
:101D3000089557FD9058440F551F59F05F3F71F0BB
:101D40004795880F97FB991F61F09F3F79F0879522
:101D50000895121613061406551FF2CF4695F1DFAB
:101D600008C0161617061806991FF1CF869571053B
:101D7000610508940895E894BB2766277727CB016F
:101D800097F908958ADF08F48FEF08950BD0C0CF3C
:101D9000B1DF28F0B6DF18F0952309F0A2CFA7CF66
:101DA0001124EACFC6DFA0F3959FD1F3950F50E041
:101DB000551F629FF001729FBB27F00DB11D639FFD
:101DC000AA27F00DB11DAA1F649F6627B00DA11DA3
:101DD000661F829F2227B00DA11D621F739FB00D49
:101DE000A11D621F839FA00D611D221F749F3327B9
:101DF000A00D611D231F849F600D211D822F762F52
:101E00006A2F11249F5750408AF0E1F088234AF04E
:101E1000EE0FFF1FBB1F661F771F881F915050409A
:101E2000A9F79E3F510570F05CCFA6CF5F3FECF362
:101E3000983EDCF3869577956795B795F795E79586
:101E40009F5FC1F7FE2B880F911D9695879597F997
:101E500008951F920F920FB60F9211248F939F93A4
:101E6000AF93BF93CF93DF93CDB7DEB72597DEBF98
:101E7000CDBF8091D4019091D501A091D601B091B0
:101E8000D70189839A83AB83BC838091D8018D83EA
:101E900089819A81AB81BC810196A11DB11D898385
:101EA0009A83AB83BC838D818D5F8D838D818D37CC
:101EB00070F08D818D578D8389819A81AB81BC8132
:101EC0000196A11DB11D89839A83AB83BC838D814B
:101ED0008093D80189819A81AB81BC818093D401A0
:101EE0009093D501A093D601B093D7018091D001F2
:101EF0009091D101A091D201B091D3010196A11D81
:101F0000B11D8093D0019093D101A093D201B093E1
:101F1000D30100000F900F900F900F900F90DF9162
:101F2000CF91BF91AF919F918F910F900FBE0F9066
:101F30001F901895CF93DF9300D000D000D0CDB77D
:101F4000DEB78FE590E0FC0180818D83F89480916D
:101F5000D0019091D101A091D201B091D301898398
:101F60009A83AB83BC8386E490E0FC0180818E83FE
:101F700085E390E0FC018081882F90E081709927B3
:101F8000892B71F08E818F3F59F089819A81AB81C5
:101F9000BC810196A11DB11D89839A83AB83BC834B
:101FA0008FE590E02D81FC01208389819A81AB81AE
:101FB000BC812227382F492F5A2F8E81882F90E0FD
:101FC000A0E0B0E0820F931FA41FB51F880F991FD8
:101FD000AA1FBB1F880F991FAA1FBB1FBC01CD01E1
:101FE00026960FB6F894DEBF0FBECDBFDF91CF911E
:101FF0000895CF93DF93CDB7DEB7789484E490E073
:10200000FC01208184E490E02260FC01208384E4D0
:1020100090E0FC01208184E490E02160FC012083B9
:1020200085E490E0FC01208185E490E02260FC01E1
:10203000208385E490E0FC01208185E490E021602C
:10204000FC0120838EE690E0FC0120818EE690E08A
:102050002160FC01208381E890E0FC01108281E88E
:1020600090E0FC01208181E890E02260FC01208367
:1020700081E890E0FC01208181E890E02160FC0192
:10208000208380E890E0FC01208180E890E02160DE
:10209000FC01208381EB90E0FC01208181EB90E04A
:1020A0002460FC01208380EB90E0FC01208180EB28
:1020B00090E02160FC0120838AE790E0FC01208110
:1020C0008AE790E02460FC0120838AE790E0FC012D
:1020D00020818AE790E02260FC0120838AE790E07B
:1020E000FC0120818AE790E02160FC0120838AE7DF
:1020F00090E0FC0120818AE790E02068FC012083C9
:1021000081EC90E0FC0110820000DF91CF910895F6
:10211000CF93DF9300D01F92CDB7DEB78B838B8137
:102120008E3018F08B818E508B8380915501882FD3
:1021300090E0382F36953695282F2295220F220FC2
:10214000207C922F8B818770292F282B8CE790E0A1
:10215000FC0120838AE790E0FC0120818AE790E07F
:102160002064FC01208300008AE790E0FC0180816C
:10217000882F90E080749927892BB1F788E790E049
:10218000FC018081898389E790E0FC0180818A835A
:102190008A81882F90E0382F22278981882F90E02C
:1021A000822B932B0F900F900F90DF91CF9108957A
:1021B000CF93DF93CDB7DEB769970FB6F894DEBF44
:1021C0000FBECDBF888F698F888D882F90E086568F
:1021D0009F4F9A83898389819A81FC0184918B83A3
:1021E0008B818C83888D882F90E08A579F4F9E83A8
:1021F0008D838D819E81FC0184918F838F8188875F
:102200008885882309F495C08885882F90E0880FF9
:10221000991F88599F4F9A87898789859A85FC01DC
:1022200025913491CF013C872B879A8789878B85AD
:102230009C859E878D878885882F90E0880F991FC1
:102240008E589F4F988B8F878F859889FC01259199
:102250003491CF013A8B298B988B8F8789899A8902
:102260009C8B8B8B898D882331F58FE590E0FC0169
:1022700080818F8BF8948D859E85FC018081982FBD
:102280008C8180958923282F8D859E85FC01208354
:102290008B899C89FC018081982F8C818095892372
:1022A000282F8B899C89FC0120838FE590E02F8962
:1022B000FC0120833FC0898D823021F58FE590E0BD
:1022C000FC0180818E8BF8948D859E85FC01808138
:1022D000982F8C8180958923282F8D859E85FC01E0
:1022E00020838B899C89FC0190818C81292F282B4C
:1022F0008B899C89FC0120838FE590E02E89FC016D
:10230000208318C08FE590E0FC0180818D8BF894CC
:102310008D859E85FC0190818C81292F282B8D85B0
:102320009E85FC0120838FE590E02D89FC012083B0
:1023300001C0000069960FB6F894DEBF0FBECDBF96
:10234000DF91CF910895CF93DF931F92CDB7DEB782
:1023500089838981882F90E08330910591F08430C2
:10236000910534F48130910501F1029741F145C0A6
:102370008730910571F188309105A9F1049759F0E2
:102380003CC080E890E0FC01208180E890E02F775D
:10239000FC01208332C080E890E0FC01208180E8CD
:1023A00090E02F7DFC01208328C084E490E0FC01B4
:1023B000208184E490E02F77FC0120831EC084E418
:1023C00090E0FC01208184E490E02F7DFC012083DB
:1023D00014C080EB90E0FC01208180EB90E02F772F
:1023E000FC0120830AC080EB90E0FC01208180EB9F
:1023F00090E02F7DFC012083000000000F90DF9112
:10240000CF910895CF93DF93CDB7DEB765970FB621
:10241000F894DEBF0FBECDBF8C8B6D8B8C89882F5F
:1024200090E082559F4F9A83898389819A81FC012C
:1024300084918B838B818C838C89882F90E0865646
:102440009F4F9E838D838D819E81FC0184918F831C
:102450008F8188878C89882F90E08A579F4F9A8731
:10246000898789859A85FC0184918B878B858C87E8
:102470008C85882309F444C08C81882311F08C81D9
:1024800062DF8C85882F90E0880F991F8E589F4FB0
:102490009E878D878D859E85FC0125913491CF0186
:1024A000388B2F879E878D878F8598899A8B898B0C
:1024B0008FE590E0FC0180818B8BF8948D898823D7
:1024C00071F489899A89FC018081982F888580958B
:1024D0008923282F89899A89FC0120830BC0898947
:1024E0009A89FC0190818885292F282B89899A89CE
:1024F000FC0120838FE590E02B89FC01208301C043
:10250000000065960FB6F894DEBF0FBECDBFDF9119
:10251000CF910895CF93DF93CDB7DEB761970FB614
:10252000F894DEBF0FBECDBF898B8989882F90E0DC
:1025300082559F4F9A83898389819A81FC01849176
:102540008B838B818C838989882F90E086569F4F5F
:102550009E838D838D819E81FC0184918F838F81E9
:1025600088878989882F90E08A579F4F9A87898723
:1025700089859A85FC0184918B878B858C878C85D6
:10258000882319F480E090E025C08C81882311F025
:102590008C81D9DE8C85882F90E0880F991F845814
:1025A0009F4F9E878D878D859E85FC012591349157
:1025B000CF01388B2F879E878D878F859889FC0167
:1025C000908188858923882319F081E090E002C0FA
:1025D00080E090E061960FB6F894DEBF0FBECDBFED
:1025E000DF91CF910895CF93DF93CDB7DEB7F89405
:1025F00081E0DF91CF910895CF93DF9300D0CDB7E5
:10260000DEB79A8389838FE590E029813A81F901C9
:102610002081FC01208300000F900F90DF91CF916B
:102620000895CF93DF9300D01F92CDB7DEB79B8381
:102630008A838A819B81FC01848D882F90E02A8186
:102640003B81820F931F835A9F4FFC0180818983B6
:102650008A819B81FC01848D882F90E001968F7385
:102660009078992324F40197806C9F6F0196282F0E
:102670008A819B81FC01248F8A819B81FC01868950
:1026800097892981FC0120838A819B81FC018089B3
:102690009189FC0180818370282F20648A819B812D
:1026A000FC0180899189FC0120838A819B81FC0146
:1026B000238D8A819B81FC01948D81E0291709F08B
:1026C00080E0882379F08A819B81FC01828993894B
:1026D000FC0120818A819B81FC01828993892F7D65
:1026E000FC01208300000F900F900F90DF91CF919D
:1026F0000895CF93DF93CDB7DEB729970FB6F8943F
:10270000DEBF0FBECDBF9C838B834D835E836F8303
:102710007887298780E099E0ADE3B0E02D813E81A4
:102720004F815885BC01CD01A2D4DA01C9010197BE
:10273000A109B109B695A795979587959A8389833D
:102740008B819C81FC018089918922E0FC0120839E
:102750008D819E81AF81B8858115914EA105B1050E
:1027600029F089819A8181159041E8F08B819C81C3
:10277000FC0180899189FC01108280E894E8AEE137
:10278000B0E02D813E814F815885BC01CD016FD4D1
:10279000DA01C9010197A109B109B695A7959795E5
:1027A00087959A83898389819A81292F33278B8101
:1027B0009C81FC0184859585FC0120838B819C8113
:1027C000FC01868597852981FC0120838B819C8172
:1027D000FC01108E8B819C81FC018489958929855F
:1027E000FC0120838B819C81FC0182899389FC01FF
:1027F00020818B819C81FC01828993892061FC016D
:1028000020838B819C81FC0182899389FC0120813A
:102810008B819C81FC01828993892860FC01208343
:102820008B819C81FC0182899389FC0120818B81B1
:102830009C81FC01828993892068FC0120838B8123
:102840009C81FC0182899389FC0120818B819C8180
:10285000FC01828993892F7DFC0120830000299649
:102860000FB6F894DEBF0FBECDBFDF91CF910895B4
:10287000CF93DF9300D0CDB7DEB79A838983898168
:102880009A81FC01818D882F90E09C01205C3F4F54
:1028900089819A81FC01828D882F90E0A901481BD3
:1028A000590BCA018F7399270F900F90DF91CF9129
:1028B0000895CF93DF9300D0CDB7DEB79A83898395
:1028C00089819A81FC01218D89819A81FC01928DF7
:1028D00081E0291709F080E0882319F08FEF9FEF3E
:1028E0000FC089819A81FC01828D882F90E0298117
:1028F0003A81820F931F4D96FC018081882F90E0D2
:102900000F900F90DF91CF910895CF93DF9300D078
:102910001F92CDB7DEB79B838A838A819B81FC019E
:10292000218D8A819B81FC01928D81E0291709F01C
:1029300080E0882319F08FEF9FEF1CC08A819B8174
:10294000FC01828D882F90E02A813B81820F931FAA
:102950004D96FC01808189838A819B81FC01828D57
:102960008F5F282F2F738A819B81FC01228F8981A1
:10297000882F90E00F900F900F90DF91CF910895E6
:10298000CF93DF9300D000D0CDB7DEB79C838B838D
:102990008B819C81FC01838D89838B819C81FC01CF
:1029A000848D8A8399818A81981768F08981882F1C
:1029B00090E02FE330E0281B390B8A81882F90E0CC
:1029C000820F931F0BC08A81282F30E08981882FC6
:1029D00090E0A901481B590BCA0101970F900F9075
:1029E0000F900F90DF91CF910895CF93DF9300D098
:1029F000CDB7DEB79A83898389819A81FC01908D56
:102A000081E08927882309F04DC089819A81FC01E2
:102A100082899389FC018081882F90E080729927B8
:102A2000892B69F489819A81FC0180899189FC0153
:102A30008081882F90E080749927892B11F481E0A0
:102A400001C080E0882379F18FE590E0FC0180816E
:102A500088237CF089819A81FC0182899389FC0119
:102A60008081882F90E080729927892B11F081E076
:102A700001C080E0882349F289819A81FC01808924
:102A80009189FC018081882F90E08072992721E054
:102A9000892B09F420E0222309F4B7CF89819A8198
:102AA000C0DDB3CF00000F900F90DF91CF9108955C
:102AB000CF93DF93CDB7DEB728970FB6F894DEBF7C
:102AC0000FBECDBF9F838E8368878E819F8121E05B
:102AD000FC01208F8E819F81FC01238D8E819F813F
:102AE000FC01848D281779F48E819F81FC018089F7
:102AF0009189FC018081882F90E080729927892B31
:102B000011F081E001C080E0882359F18FE590E069
:102B1000FC0180818C8367DD898389818823D9F0DA
:102B20008E819F81FC01868997892885FC012083FD
:102B30008E819F81FC0180899189FC018081837055
:102B4000282F20648E819F81FC0180899189FC015E
:102B500020831982E2CFCE0104964EDD81E090E021
:102B60006EC08E819F81FC01838D882F90E001963D
:102B70008F739078992324F40197806C9F6F01964E
:102B80008B838E819F81FC01948D81E02B8129179D
:102B900009F080E08823F9F08FE590E0FC01808166
:102BA0008095881F8827881F882359F38E819F81ED
:102BB000FC0180899189FC018081882F90E08072DE
:102BC000992721E0892B09F420E02223D1F28E817C
:102BD0009F8127DDD6CF8E819F81FC01838D882F39
:102BE00090E02E813F81820F931F835A9F4F28854B
:102BF000FC0120838FE590E0FC0180818D83F3DC74
:102C00008A838A818823B1F08E819F812B81FC0188
:102C1000238F8E819F81FC0182899389FC01208111
:102C20008E819F81FC01828993892062FC0120832F
:102C30001A82E7CFCE010596DFDC81E090E028968E
:102C40000FB6F894DEBF0FBECDBFDF91CF910895D0
:102C5000CF93DF9300D0CDB7DEB79A83898327EA7D
:102C600031E089819A81FC013183208389819A81B5
:102C7000FC011382128200000F900F90DF91CF9120
:102C80000895CF93DF9300D0CDB7DEB79A838983C1
:102C900080E090E00F900F90DF91CF910895CF9357
:102CA000DF9300D0CDB7DEB79A83898300000F9001
:102CB0000F90DF91CF910895CF93DF9300D0CDB7E0
:102CC000DEB79A83898389819A81C2DF25E931E061
:102CD00089819A81FC013183208329813A8188EEA0
:102CE00093E0A0E0B0E0F90184839583A683B783E5
:102CF00000000F900F90DF91CF910895CF92DF9257
:102D0000EF92FF920F931F93CF93DF93CDB7DEB770
:102D10002E970FB6F894DEBF0FBECDBF9A8389837E
:102D20007C836B835E834D8338872F831A87098763
:102D3000FC86EB86DE86CD8689819A81BDDF23E81D
:102D400031E089819A81FC013183208389819A81D4
:102D50002B813C81FC013587248789819A812D81D3
:102D60003E81FC013787268789819A812F813885AA
:102D7000FC01318B208B89819A8129853A85FC0160
:102D8000338B228B89819A812B853C85FC01358B85
:102D9000248B89819A812D853E85FC01378B268B7A
:102DA00089819A81FC01118E89819A81FC01128EA0
:102DB00089819A81FC01138E89819A81FC01148E8C
:102DC00000002E960FB6F894DEBF0FBECDBFDF9188
:102DD000CF911F910F91FF90EF90DF90CF900895CA
:102DE000CF93DF9300D000D0CDB7DEB79C838B8329
:102DF0008B819C81FC0180899189FC018081882FD5
:102E000090E08470992721E0892B09F020E02223AB
:102E100071F18B819C81FC0186899789FC018081FD
:102E200089838B819C81FC01818D8F5F8F738A8365
:102E30008B819C81FC01928D81E02A81291709F404
:102E400080E08823D9F08B819C81FC01818D882FC3
:102E500090E02B813C81820F931F4D962981FC01CC
:102E600020838B819C812A81FC01218F07C08B816B
:102E70009C81FC0186899789FC01808100000F906C
:102E80000F900F900F90DF91CF9108951F920F92A6
:102E90000FB60F9211242F933F934F935F936F932D
:102EA0007F938F939F93AF93BF93EF93FF93CF93B2
:102EB000DF93CDB7DEB789ED91E092DF0000DF91BF
:102EC000CF91FF91EF91BF91AF919F918F917F91A2
:102ED0006F915F914F913F912F910F900FBE0F9087
:102EE0001F9018951F920F920FB60F9211242F93D7
:102EF0003F934F935F936F937F938F939F93AF9382
:102F0000BF93EF93FF93CF93DF93CDB7DEB789EDF8
:102F100091E087DB0000DF91CF91FF91EF91BF91AE
:102F2000AF919F918F917F916F915F914F913F9161
:102F30002F910F900FBE0F901F901895CF92DF9298
:102F4000EF92FF920F931F93CF93DF9300D000D0A7
:102F5000CDB7DEB79A8389837C836B8389819A811D
:102F60000197C9F48B819C810196A9F40F2EF6EC90
:102F7000CF2ED12CF02D0F2EF2ECEF2EF12CF02DC8
:102F800001EC10E020EC30E044EC50E065EC70E047
:102F900089ED91E0B3DE00000F900F900F900F903D
:102FA000DF91CF911F910F91FF90EF90DF90CF9025
:102FB0000895CF93DF93CDB7DEB76FEF7FEF81E05A
:102FC00090E0BCDFDF91CF910895CF93DF93CDB731
:102FD000DEB728970FB6F894DEBF0FBECDBF9C8337
:102FE0008B837E836D8358874F831A8219828F81EA
:102FF00098859C012150310938872F8321E0892B46
:1030000009F420E0222319F18B819C81FC0180814D
:103010009181FC01208131818D819E81AC014F5FC6
:103020005F4F5E834D83FC0140818B819C81642FC7
:10303000F901099521E0892B09F420E0222331F0E0
:1030400089819A8101969A838983D1CF00008981F1
:103050009A8128960FB6F894DEBF0FBECDBFDF91E0
:10306000CF910895CF93DF93CDB7DEB728D0A1E2FB
:103070001A2EAA1BBB1BFD010DC0AA1FBB1FEE1FF2
:10308000FF1FA217B307E407F50720F0A21BB30B3D
:10309000E40BF50B661F771F881F991F1A9469F7B9
:1030A00060957095809590959B01AC01BD01CF0115
:1030B0000895EE0FFF1F0590F491E02D099481E033
:1030C00090E0F8941FC0DC0101C06D934150504066
:1030D000E0F70895FB01DC018D910190801901104A
:1030E000D9F3990B0895FB01DC014150504048F0A1
:1030F00001900D920020C9F701C01D92415050402F
:08310000E0F70895F894FFCFF9
:1031080000000000000000000AD7233C0AD7233C37
:103118000AD7233C0AD7233C0AD7233C0A28A03BDA
:103128000AD7A33DCDCC4CBE0000C8420A28A03B1C
:10313800CDCC9C41000044C20A28A03B0AD7A33D3D
:10314800CDCC4CBE0000C8420A28A03BCDCC9C4147
:10315800000044C20001004C6F44616D70696E67E5
:1031680000486944616D70696E6700B90148694437
:10317800616D70696E674C6F44616D70696E670050
:103188000000005815E517C014F5143814851459B3
:1031980014000000003218E51741164F1632183295
:1031A800183218000000003218E51741164F1600B3
:00000001FF
